:100000000C944D000C946C000C946C000C946C00DF
:100010000C946C000C946C000C946C000C946C00B0
:100020000C946C000C946C000C946C000C946C00A0
:100030000C946C000C9450010C946C000C946C00AB
:100040000C946C000C946C000C946C000C946C0080
:100050000C946C000C946C000C946C000C946C0070
:100060000C946C000C946C000C946C000C946C0060
:100070000C946C000C946C000C946C000C946C0050
:100080000C946C000C946C000C946C009E02A50205
:10009000600467046E0475047C0411241FBECFEF56
:1000A000D0E4DEBFCDBF11E0A0E0B1E0E8E7FCE0C6
:1000B00000E00BBF02C007900D92A431B107D9F741
:1000C00011E0A4E1B1E001C01D92A033B107E1F756
:1000D0000E9476050C943A060C940000CF93C82F2A
:1000E0008A3019F48DE00E946E009091C00095FF57
:1000F000FCCFC093C60080E090E0CF91089540E02F
:1001000050E00CC000002F5F3F4F02C020E030E005
:10011000273063E03607B4F34F5F5F4F4817590746
:10012000ACF308955E9888B95F9A00005F9882E00A
:1001300090E00E947F00089581E00E94920008955F
:10014000813120F481580E949200089581550E94C7
:100150009200089584E690E00E947F0088E30E9468
:10016000920086E00E9492008FE00E94920081E05F
:100170000E9492008AE090E00E947F0008955E9ABB
:1001800088B95F9A00005F9881E090E00E947F004C
:100190000895EF92FF920F931F93CF93DF93182F41
:1001A000EB010E949C000EC001E0010F812F0E9414
:1001B000A0007E018FEFE81AF80A88810E94BF0034
:1001C000102FE70188818111EFCFDF91CF911F912F
:1001D0000F91FF90EF90089581B1876081B90895E4
:1001E000119A11980895129A81E0982F9A95F1F733
:1001F00012988A95F1F70895CF93C82F109227018E
:100200000DC0CC2314F4109A01C010980E94F00085
:10021000CC0F909127019F5F909327018091270138
:10022000883078F30E94F300CF910895109227014F
:1002300007C0E0E0F0E03197F1F78F5F809327018E
:10024000809127018E31A8F308958BE0809381007F
:100250008DE790E0909389008093880082E08093FE
:100260006F0010928500109284008091020190919D
:100270000301A0910401B0910501809322019093A4
:100280002301A0932401B09325018FB780688FBF0D
:10029000089510928100089581E0809326010895C9
:1002A0001F920F920FB60F9211240BB60F922F933D
:1002B0003F934F935F936F937F938F939F93AF93EE
:1002C000BF93EF93FF938091220190912301A0911E
:1002D0002401B09125010197A109B1098093220160
:1002E00090932301A0932401B0932501892B8A2B9D
:1002F0008B2B91F40E944C0180910201909103019B
:10030000A0910401B09105018093220190932301F3
:10031000A0932401B0932501FF91EF91BF91AF917C
:100320009F918F917F916F915F914F913F912F910D
:100330000F900BBE0F900FBE0F901F9018956093FB
:10034000020170930301809304019093050160936F
:100350002201709323018093240190932501089535
:1003600080912801909129018130910571F030F040
:100370008230910519F1039741F12EC081E090E0A0
:1003800090932901809328012BC0189907C082E01F
:1003900090E0909329018093280122C0199907C009
:1003A00083E090E0909329018093280119C081E0B7
:1003B00090E0909329018093280112C081E090E0A1
:1003C00090932901809328010BC081E090E09093E5
:1003D00029018093280104C010922901109228015C
:1003E00080912801909129018230910561F083303C
:1003F0009105C1F0892B21F587EC80931D0180E8E0
:1004000080931C01089580911D018F31C9F0809166
:100410001D01880F80931D0180911D018F5F8093C6
:100420001D01089580911D01883F51F080911D01AB
:10043000869580931D0180911D01805880931D0138
:10044000089580912E0190912F018130910571F0D6
:1004500030F08230910519F1039741F12EC081E00F
:1004600090E090932F0180932E012BC01C9907C020
:1004700082E090E090932F0180932E0122C01B997F
:1004800007C083E090E090932F0180932E0119C064
:1004900081E090E090932F0180932E0112C081E0C3
:1004A00090E090932F0180932E010BC081E090E0AB
:1004B00090932F0180932E0104C010922F0110926F
:1004C0002E0180912E0190912F0182309105D9F05B
:1004D0008330910549F0892B21F587EC80931B012E
:1004E00081E080931A01089580911B018F31C9F03A
:1004F00080911B01880F80931B0180911B018F5FEE
:1005000080931B01089580911B01883F51F08091D9
:100510001B01869580931B0180911B01805880935D
:100520001B010895E0912A01F0912B01E730F105BC
:1005300008F0E2C1EA5BFF4F0C94310681E090E0E5
:1005400090932B0180932A01DDC1809119018330A2
:1005500041F4909118019F3721F484E080931901B0
:100560001DC0813041F4909118019F3721F482E041
:100570008093190113C0823041F4909118019E3F7D
:1005800021F481E08093190109C0843039F480910D
:1005900018018E3F19F483E08093190180911901AD
:1005A000833039F480911801880F8F5F8093160192
:1005B0000DC0843039F4809118018695805880935D
:1005C000160104C0809118018093160180911D01CD
:1005D00040911601842B8F3FA1F120911C0130E046
:1005E0008091170190E0880F991F2817390749F566
:1005F000842F880F21E0280F20931501809101019D
:10060000833318F089518093010160911D0170E0DE
:10061000842F90E08617970724F481E080931901D6
:100620002CC040911D0150E0822F90E08417950767
:1006300024F486E08093190120C082E080931901A0
:100640001CC090911C0180911701981316C08091D5
:100650000001811104C080E1809300010EC080314F
:1006600021F480E38093000108C0803321F480E707
:100670008093000102C0109200011D9970C080910A
:100680001901813039F480911801880F8F5F8093B0
:1006900016010DC0823039F480911801869580587A
:1006A0008093160104C080911801809316019091E7
:1006B0001B0180911601892B8F3FA1F180911701B9
:1006C000869590911A0189132DC080911801880F89
:1006D0008F5F80931601282F220F2F5F2093150123
:1006E00090910101933318F0995190930101409139
:1006F0001B0150E090E08417950724F483E0809379
:10070000190198C040911B0150E0822F90E084179E
:10071000950724F485E0809319018CC084E08093D0
:10072000190188C090911A0180911701981382C015
:1007300080912001811104C081E0809320017AC062
:10074000813021F483E08093200174C0833021F450
:1007500087E0809320016EC0109220016BC08091D1
:100760001901813039F480911801880F8F5F8093CF
:1007700016010DC0823039F4809118018695805899
:100780008093160104C08091180180931601809116
:100790001F0190911601892B8F3F81F180911701E4
:1007A000869520911E01821329C0892F880F21E090
:1007B000280F2093150180910101833318F089518E
:1007C0008093010140911F0150E0892F90E0841730
:1007D000950724F483E0809319012CC040911F01F8
:1007E00050E0822F90E08417950724F485E08093F1
:1007F000190120C084E0809319011CC090911E0152
:1008000080911701981316C080912001811104C0B6
:1008100081E0809320010EC0813021F483E0809339
:10082000200108C0833021F487E08093200102C0BA
:10083000109220019091200180910001892B8093DA
:10084000210180911901813039F482E090E0909388
:100850002B0180932A0156C0823039F483E090E066
:1008600090932B0180932A014DC0833039F484E0AA
:1008700090E090932B0180932A0144C0843039F496
:1008800085E090E090932B0180932A013BC0853056
:1008900039F486E090E090932B0180932A0132C0D6
:1008A000863039F487E090E090932B0180932A0101
:1008B00029C081E090E090932B0180932A0122C00F
:1008C00081E090E090932B0180932A011BC081E08E
:1008D00090E090932B0180932A0114C081E090E076
:1008E00090932B0180932A010DC081E090E09093BA
:1008F0002B0180932A0106C081E090E090932B01A8
:1009000080932A0180912A0190912B0184309105D6
:1009100081F130F48230910561F00397D1F00895B0
:100920008630910509F445C0A0F1079709F447C046
:10093000089580911801880F809318018091180103
:100940008F5F80931801809117018695809317011E
:10095000089580911801869580931801809118015F
:100960008058809318018091170186958093170114
:10097000089580911801880F8093180180911801C3
:100980008F5F8093180180911701880F8093170162
:10099000089580911801869580931801809118011F
:1009A00080588093180180911701880F8093170158
:1009B000089580911701880F809317010895809101
:1009C0001701869580931701089580912C019091CD
:1009D0002D018130910581F040F08230910509F4BC
:1009E00042C0039709F446C04CC081E090E0909368
:1009F0002D0180932C0149C080911801880F8F5FD1
:100A000080931601282F220F2F5F2093150140910C
:100A10001F0150E090E0841795075CF480911F015E
:100A20008F3139F083E090E090932D0180932C0179
:100A30002CC040911F0150E0822F90E08417950751
:100A40005CF480911F01883F39F481E090E090933D
:100A50002D0180932C0119C082E090E090932D012C
:100A600080932C0112C081E090E090932D0180933F
:100A70002C010BC081E090E090932D0180932C011C
:100A800004C010922D0110922C0180912C019091A4
:100A90002D0182309105D9F08330910549F0892BE1
:100AA00021F587EC80931F0181E080931E0108955A
:100AB00080911F018F31C9F080911F01880F8093B1
:100AC0001F0180911F018F5F80931F010895809106
:100AD0001F01883F51F080911F01869580931F016F
:100AE00080911F01805880931F01089514B88FEFE3
:100AF00085B981B912B887B918B88AB91BB861E04D
:100B000070E080E090E00E949F010E94250187EC48
:100B100080931D0180E880931C011092290110929E
:100B200028011D990BC087EC80931B0181E0809305
:100B30001A0110922F0110922E010AC087EC8093A7
:100B40001F0181E080931E0110922D0110922C0153
:100B50000E94EC0000E0D0E0C0E010E080912101B4
:100B60000E94FC00123349F40E94B0011D9904C098
:100B70000E94210210E001C010E01F5FC43619F48A
:100B80000E94E504C0E0CF5F80910101D81303C04B
:100B90000E949202D0E0DF5F011108C080911D0128
:100BA00088B980911C018BB901E01BC0013091F420
:100BB0001D9908C080911B0188B980911A018BB9D9
:100BC00002E00FC080911F0188B980911E018BB98E
:100BD00002E007C08091180188B9809117018BB994
:100BE00000E01A992AC080910001883011F4109217
:100BF000000191E080912001873009F090E081E0D0
:100C000020910001203709F080E0892B31F010920B
:100C10002101109200011092200184E080931701BD
:100C20008BEF8093180185E08093190110922B01BE
:100C300010922A0184EF809301011E990BC010923B
:100C400021011092200110920001109217018FEFE4
:100C500080931801809126018823E1F310922601E8
:100C60007DCFEE0FFF1F0024001C0BBE0790F691F6
:080C7000E02D0994F894FFCF78
:100C780008F40100000000000002000000006E00FF
:040C88000000000068
:00000001FF
