:100000000C944D000C946C000C946C000C946C00DF
:100010000C946C000C946C000C946C000C946C00B0
:100020000C946C000C946C000C946C000C946C00A0
:100030000C946C000C9417010C946C000C946C00E4
:100040000C946C000C946C000C946C000C946C0080
:100050000C946C000C946C000C946C000C946C0070
:100060000C946C000C946C000C946C000C946C0060
:100070000C946C000C946C000C946C000C946C0050
:100080000C946C000C946C000C946C0065026C0277
:10009000C003C703CE03D503DC0311241FBECFEF7B
:1000A000D0E4DEBFCDBF11E0A0E0B1E0ECEAF9E0C2
:1000B00000E00BBF02C007900D92A431B107D9F741
:1000C00011E0A4E1B1E001C01D92A932B107E1F74E
:1000D0000E9445040C94D4040C940000CF93C82FC4
:1000E0008A3019F48DE00E946E009091C00095FF57
:1000F000FCCFC093C60080E090E0CF91089540E02F
:1001000050E00CC000002F5F3F4F02C020E030E005
:10011000273063E03607B4F34F5F5F4F4817590746
:10012000ACF308955E9888B95F9A00005F9882E00A
:1001300090E00E947F00089581E00E94920008955F
:10014000813120F481580E949200089581550E94C7
:100150009200089584E690E00E947F0088E30E9468
:10016000920086E00E9492008FE00E94920081E05F
:100170000E9492008AE090E00E947F0008955E9ABB
:1001800088B95F9A00005F9881E090E00E947F004C
:100190000895EF92FF920F931F93CF93DF93182F41
:1001A000EB010E949C000EC001E0010F812F0E9414
:1001B000A0007E018FEFE81AF80A88810E94BF0034
:1001C000102FE70188818111EFCFDF91CF911F912F
:1001D0000F91FF90EF9008958BE0809381008DE761
:1001E00090E0909389008093880082E080936F0074
:1001F000109285001092840080910101909102017B
:10020000A0910301B091040180931E0190931F01FE
:10021000A0932001B09321018FB780688FBF08950C
:1002200010928100089581E08093220108951F9229
:100230000F920FB60F9211240BB60F922F933F938C
:100240004F935F936F937F938F939F93AF93BF93DE
:10025000EF93FF9380911E0190911F01A0912001C7
:10026000B09121010197A109B10980931E019093DA
:100270001F01A0932001B0932101892B8A2B8B2B86
:1002800091F40E9413018091010190910201A091CB
:100290000301B091040180931E0190931F01A0936C
:1002A0002001B0932101FF91EF91BF91AF919F91F8
:1002B0008F917F916F915F914F913F912F910F900F
:1002C0000BBE0F900FBE0F901F9018956093010109
:1002D00070930201809303019093040160931E01C7
:1002E00070931F01809320019093210108958091C4
:1002F0002301909124018130910571F030F082301A
:10030000910519F1039741F12EC081E090E090939F
:100310002401809323012BC0189907C082E090E04C
:10032000909324018093230122C0199907C083E090
:1003300090E0909324018093230119C081E090E024
:10034000909324018093230112C081E090E0909368
:100350002401809323010BC081E090E0909324015D
:100360008093230104C010922401109223018091F4
:100370002301909124018230910561F08330910531
:10038000C1F0892B21F587EC80931C0180E88093D4
:100390001B01089580911C018F31C9F080911C01CF
:1003A000880F80931C0180911C018F5F80931C013A
:1003B000089580911C01883F51F080911C01869521
:1003C00080931C0180911C01805880931C0108952A
:1003D00080912701909128018130910571F030F0D2
:1003E0008230910519F1039741F12EC081E090E030
:1003F00090932801809327012BC01C9907C082E0AD
:1004000090E0909328018093270122C01B9907C098
:1004100083E090E0909328018093270119C081E048
:1004200090E0909328018093270112C081E090E032
:1004300090932801809327010BC081E090E0909376
:1004400028018093270104C01092280110922701EF
:1004500080912701909128018230910561F08330CD
:100460009105C1F0892B21F587EC80931A0181E079
:1004700080931901089580911A018F31C9F08091FC
:100480001A01880F80931A0180911A018F5F80935F
:100490001A01089580911A01883F51F080911A0144
:1004A000869580931A0180911A01805880931A01D1
:1004B0000895E0912501F0912601E730F10508F05B
:1004C0007BC1EA5BFF4F0C94CB0481E090E09093FA
:1004D00026018093250176C11D9B1FC080911801C4
:1004E000813041F490911601913021F483E08093A2
:1004F000180113C0823041F490911601913021F41B
:1005000084E08093180109C0863039F48091160187
:10051000813019F485E080931801809118018330AF
:1005200041F4909117019F3721F484E080931801E2
:100530001DC0813041F4909117019F3721F482E072
:100540008093180113C0823041F4909117019E3FAF
:1005500021F481E08093180109C0843039F480913E
:1005600017018E3F19F483E08093180180911701E1
:100570008E3F41F480911601813021F483E0809315
:10058000180123C0809117018F3741F48091160123
:10059000803821F482E08093180117C08091170100
:1005A0008F3741F480911601813021F484E08093EB
:1005B00018010BC0809117018E3F39F4809116010C
:1005C000803819F481E08093180190911C0180918A
:1005D0001701892B8F3FC1F120911B0130E08091E1
:1005E000160190E0880F991F2817390769F5809147
:1005F0001701880F8F5F80931501282F220F2F5F1F
:100600002093140190910001933318F09951909325
:10061000000140911C0150E090E08417950724F4FC
:1006200081E08093180120C040911C0150E0822F8E
:1006300090E08417950724F486E08093180114C095
:1006400082E08093180110C090911C0180911701E5
:10065000892B8F3F49F490911B01809116019813CB
:1006600003C081E080931D011D994BC090911A0138
:1006700080911701892B8F3FA1F1809116018695FA
:100680009091190189132DC080911701880F8F5FF8
:1006900080931501282F220F2F5F20931401909132
:1006A0000001933318F099519093000140911A0181
:1006B00050E090E08417950724F483E080931801BC
:1006C00020C040911A0150E0822F90E084179507D6
:1006D00024F485E08093180114C084E0809318010D
:1006E00010C090911A0180911701892B8F3F49F416
:1006F0009091190180911601981303C081E08093B5
:100700001D0180911801813039F482E090E09093CE
:1007100026018093250156C0823039F483E090E0B1
:1007200090932601809325014DC0833039F484E0F5
:1007300090E0909326018093250144C0843039F4E1
:1007400085E090E090932601809325013BC08530A1
:1007500039F486E090E0909326018093250132C021
:10076000863039F487E090E090932601809325014C
:1007700029C081E090E0909326018093250122C05A
:1007800081E090E090932601809325011BC081E0D9
:1007900090E0909326018093250114C081E090E0C1
:1007A00090932601809325010DC081E090E0909305
:1007B00026018093250106C081E090E090932601F8
:1007C0008093250180912501909126018430910527
:1007D00081F130F48230910561F00397D1F00895F2
:1007E0008630910509F445C0A0F1079709F447C088
:1007F000089580911701880F809317018091170148
:100800008F5F809317018091160186958093160162
:1008100008958091170186958093170180911701A3
:100820008058809317018091160186958093160158
:10083000089580911701880F809317018091170107
:100840008F5F8093170180911601880F80931601A6
:100850000895809117018695809317018091170163
:1008600080588093170180911601880F809316019C
:10087000089580911601880F809316010895809144
:100880001601869580931601089514B88FEF85B9E7
:1008900081B912B887B918B88AB91BB861E070E09D
:1008A00080E090E00E9466010E94EC0087EC80935B
:1008B0001C0180E880931B011092240110922301F7
:1008C0001D9906C087EC80931A0181E0809319017D
:1008D00080E88093160187EF8093170185E080936D
:1008E0001801109226011092250110E0C0E0D0E01E
:1008F00080911D01813021F418B88FEF8BB982B936
:10090000D43649F40E9477011D9904C00E94E80181
:10091000D0E001C0D0E0DF5F80910001C81303C0C8
:100920000E945902C0E0CF5F111108C080911C01E4
:1009300088B980911B018BB911E011C0113041F4CD
:1009400080911A0188B9809119018BB912E007C012
:100950008091170188B9809116018BB910E01A991E
:1009600013C010921D0182E08093160187EF8093DF
:10097000170185E08093180110922601109225013D
:1009800084EF8093000112B8809122018823E1F363
:1009900010922201ADCFEE0FFF1F0024001C0BBEF2
:0C09A0000790F691E02D0994F894FFCF29
:1009AC00F40100000000000002000000006E0000D6
:0409BC000000000037
:00000001FF
