:100000000C944D000C946C000C946C000C946C00DF
:100010000C946C000C946C000C946C000C946C00B0
:100020000C946C000C946C000C946C000C946C00A0
:100030000C946C000C9417010C946C000C946C00E4
:100040000C946C000C946C000C946C000C946C0080
:100050000C946C000C946C000C946C000C946C0070
:100060000C946C000C946C000C946C000C946C0060
:100070000C946C000C946C000C946C000C946C0050
:100080000C946C000C946C000C946C00F401FB015B
:10009000C302CA02D102D802DF0211241FBECFEF71
:1000A000D0E4DEBFCDBF11E0A0E0B1E0EEE4F7E0C8
:1000B00000E00BBF02C007900D92A231B107D9F743
:1000C00011E0A2E1B1E001C01D92A232B107E1F757
:1000D0000E9444030C94A5030C940000CF93C82FF6
:1000E0008A3019F48DE00E946E009091C00095FF57
:1000F000FCCFC093C60080E090E0CF91089540E02F
:1001000050E00CC000002F5F3F4F02C020E030E005
:10011000273063E03607B4F34F5F5F4F4817590746
:10012000ACF308955E9888B95F9A00005F9882E00A
:1001300090E00E947F00089581E00E94920008955F
:10014000813120F481580E949200089581550E94C7
:100150009200089584E690E00E947F0088E30E9468
:10016000920086E00E9492008FE00E94920081E05F
:100170000E9492008AE090E00E947F0008955E9ABB
:1001800088B95F9A00005F9881E090E00E947F004C
:100190000895EF92FF920F931F93CF93DF93182F41
:1001A000EB010E949C000EC001E0010F812F0E9414
:1001B000A0007E018FEFE81AF80A88810E94BF0034
:1001C000102FE70188818111EFCFDF91CF911F912F
:1001D0000F91FF90EF9008958BE0809381008DE761
:1001E00090E0909389008093880082E080936F0074
:1001F000109285001092840080910001909101017D
:10020000A0910201B091030180931801909319010C
:10021000A0931A01B0931B018FB780688FBF089518
:1002200010928100089581E080931C0108951F922F
:100230000F920FB60F9211240BB60F922F933F938C
:100240004F935F936F937F938F939F93AF93BF93DE
:10025000EF93FF938091180190911901A0911A01D9
:10026000B0911B010197A109B109809318019093E6
:100270001901A0931A01B0931B01892B8A2B8B2B98
:1002800091F40E9413018091000190910101A091CD
:100290000201B09103018093180190931901A0937A
:1002A0001A01B0931B01FF91EF91BF91AF919F9104
:1002B0008F917F916F915F914F913F912F910F900F
:1002C0000BBE0F900FBE0F901F901895609300010A
:1002D00070930101809302019093030160931801D0
:1002E0007093190180931A0190931B0108958091D6
:1002F0001E0190911F018130910571F030F0823024
:10030000910519F1039741F12EC081E090E090939F
:100310001F0180931E012BC0189907C082E090E056
:1003200090931F0180931E0122C0199907C083E09A
:1003300090E090931F0180931E0119C081E090E02E
:1003400090931F0180931E0112C081E090E0909372
:100350001F0180931E010BC081E090E090931F016C
:1003600080931E0104C010921F0110921E01809103
:100370001E0190911F018230910561F0833091053B
:10038000C1F0892B21F587EE8093170180E88093D7
:1003900016010895809117018F33C9F080911701DC
:1003A000880F80931701809117018F5F8093170149
:1003B0000895809117018C3F51F080911701869527
:1003C0008093170180911701805880931701089539
:1003D000E0912001F0912101E730F10508F0EFC034
:1003E000EA5BFF4F0C949C0381E090E09093210125
:1003F00080932001EAC080911501813041F49091F1
:100400001301913021F483E08093150131C08230D3
:1004100041F490911301913021F484E0809315010F
:1004200027C0833041F4909114019F3721F484E078
:10043000809315011DC0813041F4909114019F37C4
:1004400021F482E08093150113C0823041F4909131
:1004500014019E3F21F481E08093150109C084308E
:1004600039F4809114018E3F19F483E080931501D3
:10047000809114018E3F41F480911301813021F469
:1004800083E08093150123C0809114018F3741F4DC
:1004900080911301803821F482E08093150117C008
:1004A000809114018F3741F480911301813021F440
:1004B00084E0809315010BC0809114018E3F39F4C4
:1004C00080911301803819F481E080931501909197
:1004D000170180911401892B8F3FF9F020911601AB
:1004E00030E08091130190E0880F991F2817390799
:1004F000A1F480911401880F8F5F809312012091E5
:10050000170130E090E08217930724F481E0809394
:10051000150103C082E0809315018091150181309F
:1005200039F482E090E090932101809320014DC046
:10053000823039F483E090E0909321018093200190
:1005400044C0833039F484E090E09093210180939B
:1005500020013BC0843039F485E090E09093210184
:100560008093200132C0853039F486E090E090938A
:1005700021018093200129C081E090E09093210126
:100580008093200122C081E090E09093210180932C
:1005900020011BC081E090E0909321018093200115
:1005A00014C081E090E090932101809320010DC060
:1005B00081E090E0909321018093200106C081E0CA
:1005C00090E09093210180932001809120019091EF
:1005D00021018430910571F130F48230910551F0A0
:1005E0000397C1F0089585309105A1F1069709F4AC
:1005F00041C0089580911401880F80931401809167
:1006000014018F5F8093140180911301869580936C
:1006100013010895809114018695809314018091AF
:100620001401805880931401809113018695809362
:100630001301089580911401880F80931401809113
:1006400014018F5F8093140180911301880F8093B0
:10065000130108958091140186958093140180916F
:10066000140180588093140180911301880F8093A6
:100670001301089580911401809314018091130156
:10068000880F80931301089514B88FEF85B981B94D
:1006900012B887B918B88AB91BB861E070E080E079
:1006A00090E00E9466010E94EC0087EE80931701A3
:1006B00080E88093160110921F0110921E01809312
:1006C000130187EF8093140185E080931501109248
:1006D000210110922001C0E090E0943629F40E949C
:1006E00077010E94E80190E09F5FC11108C08091EE
:1006F000170188B9809116018BB9C1E007C08091BC
:10070000140188B9809113018BB9C0E01A990DC00A
:1007100088E08093130187EF8093140185E0809334
:100720001501109221011092200180911C01882353
:10073000E1F310921C01D1CFEE0FFF1F0024001C2B
:0E0740000BBE0790F691E02D0994F894FFCFC0
:10074E000100000000000002000000006E0000002A
:02075E00000099
:00000001FF
