:100000000C944D000C946C000C946C000C946C00DF
:100010000C946C000C946C000C946C000C946C00B0
:100020000C946C000C946C000C946C000C946C00A0
:100030000C946C000C9417010C946C000C946C00E4
:100040000C946C000C946C000C946C000C946C0080
:100050000C946C000C946C000C946C000C946C0070
:100060000C946C000C946C000C946C000C946C0060
:100070000C946C000C946C000C946C000C946C0050
:100080000C946C000C946C000C946C0065026C0277
:100090006903700377037E03850311241FBECFEF2E
:1000A000D0E4DEBFCDBF11E0A0E0B1E0EAEDF8E0C2
:1000B00000E00BBF02C007900D92A431B107D9F741
:1000C00011E0A4E1B1E001C01D92A732B107E1F750
:1000D0000E94EA030C946B040C940000CF93C82F89
:1000E0008A3019F48DE00E946E009091C00095FF57
:1000F000FCCFC093C60080E090E0CF91089540E02F
:1001000050E00CC000002F5F3F4F02C020E030E005
:10011000273063E03607B4F34F5F5F4F4817590746
:10012000ACF308955E9888B95F9A00005F9882E00A
:1001300090E00E947F00089581E00E94920008955F
:10014000813120F481580E949200089581550E94C7
:100150009200089584E690E00E947F0088E30E9468
:10016000920086E00E9492008FE00E94920081E05F
:100170000E9492008AE090E00E947F0008955E9ABB
:1001800088B95F9A00005F9881E090E00E947F004C
:100190000895EF92FF920F931F93CF93DF93182F41
:1001A000EB010E949C000EC001E0010F812F0E9414
:1001B000A0007E018FEFE81AF80A88810E94BF0034
:1001C000102FE70188818111EFCFDF91CF911F912F
:1001D0000F91FF90EF9008958BE0809381008DE761
:1001E00090E0909389008093880082E080936F0074
:1001F000109285001092840080910101909102017B
:10020000A0910301B091040180931C0190931D0102
:10021000A0931E01B0931F018FB780688FBF089510
:1002200010928100089581E08093200108951F922B
:100230000F920FB60F9211240BB60F922F933F938C
:100240004F935F936F937F938F939F93AF93BF93DE
:10025000EF93FF9380911C0190911D01A0911E01CD
:10026000B0911F010197A109B10980931C019093DE
:100270001D01A0931E01B0931F01892B8A2B8B2B8C
:1002800091F40E9413018091010190910201A091CB
:100290000301B091040180931C0190931D01A09370
:1002A0001E01B0931F01FF91EF91BF91AF919F91FC
:1002B0008F917F916F915F914F913F912F910F900F
:1002C0000BBE0F900FBE0F901F9018956093010109
:1002D00070930201809303019093040160931C01C9
:1002E00070931D0180931E0190931F0108958091CA
:1002F0002101909122018130910571F030F082301E
:10030000910519F1039741F12EC081E090E090939F
:100310002201809321012BC0189907C082E090E050
:10032000909322018093210122C0199907C083E094
:1003300090E0909322018093210119C081E090E028
:10034000909322018093210112C081E090E090936C
:100350002201809321010BC081E090E09093220163
:100360008093210104C010922201109221018091FA
:100370002101909122018230910561F08330910535
:10038000C1F0892B21F587EE80931B0180E88093D3
:100390001A01089580911B018F33C9F080911B01D0
:1003A000880F80931B0180911B018F5F80931B013D
:1003B000089580911B018C3F51F080911B0186951F
:1003C00080931B0180911B01805880931B0108952D
:1003D00080912501909126018130910571F030F0D6
:1003E0008230910519F1039741F12EC081E090E030
:1003F00090932601809325012BC01C9907C082E0B1
:1004000090E0909326018093250122C01B9907C09C
:1004100083E090E0909326018093250119C081E04C
:1004200090E0909326018093250112C081E090E036
:1004300090932601809325010BC081E090E090937A
:1004400026018093250104C01092260110922501F7
:1004500080912501909126018230910561F08330D1
:100460009105C1F0892B21F587EE8093190181E078
:10047000809318010895809119018F33C9F08091FC
:100480001901880F80931901809119018F5F809362
:1004900019010895809119018C3F51F08091190143
:1004A00086958093190180911901805880931901D4
:1004B0000895E0912301F0912401E730F10508F05F
:1004C00024C1EA5BFF4F0C94620481E090E09093BA
:1004D0002401809323011FC11D9B15C0809117012A
:1004E000813041F490911501913021F483E08093A3
:1004F000170109C0823039F480911501813019F457
:1005000084E08093170180911701833041F490912A
:1005100016019F3721F484E0809317011DC08130BC
:1005200041F4909116019F3721F482E080931701E6
:1005300013C0823041F4909116019E3F21F481E076
:100540008093170109C0843039F4809116018E3FE1
:1005500019F483E080931701809116018E3F41F4D6
:1005600080911501813021F483E08093170123C02D
:10057000809116018F3741F480911501803821F464
:1005800082E08093170117C0809116018F3741F4E4
:1005900080911501813021F484E0809317010BC014
:1005A000809116018E3F39F480911501803819F43D
:1005B00081E08093170190911B0180911601892B96
:1005C0008F3F31F120911A0130E08091150190E0C8
:1005D000880F991F28173907D9F480911601880FC1
:1005E0008F5F8093140190910001933318F099511B
:1005F0009093000120911B0130E090E08217930757
:1006000024F481E08093170103C082E080931701F6
:100610001D9929C09091190180911601892B8F3F56
:1006200011F18091150186959091180189131BC0D5
:1006300080911601880F8F5F8093140190910001C3
:10064000933318F09951909300012091190130E0F3
:1006500090E08217930724F483E08093170103C08E
:1006600084E08093170180911701813039F482E092
:1006700090E090932401809323014DC0823039F49F
:1006800083E090E0909324018093230144C0833061
:1006900039F484E090E090932401809323013BC0DF
:1006A000843039F485E090E0909324018093230115
:1006B00032C0853039F486E090E090932401809335
:1006C000230129C081E090E09093240180932301CD
:1006D00022C081E090E090932401809323011BC00D
:1006E00081E090E0909324018093230114C081E085
:1006F00090E090932401809323010DC081E090E06D
:10070000909324018093230106C081E090E09093B0
:10071000240180932301809123019091240184304E
:10072000910571F130F48230910551F00397C1F0D9
:10073000089585309105A1F1069709F441C0089507
:1007400080911601880F80931601809116018F5FAA
:100750008093160180911501869580931501089567
:10076000809116018695809316018091160180581C
:100770008093160180911501869580931501089547
:1007800080911601880F80931601809116018F5F6A
:100790008093160180911501880F809315010895AB
:1007A00080911601869580931601809116018058DC
:1007B0008093160180911501880F8093150108958B
:1007C000809116018093160180911501880F809306
:1007D0001501089514B88FEF85B981B912B887B99A
:1007E00018B88AB91BB861E070E080E090E00E9420
:1007F00066010E94EC0087EE80931B0180E88093E5
:100800001A0110922201109221011D9906C087EE53
:100810008093190181E08093180180E8809315018D
:1008200087EF8093160185E08093170110922401D1
:100830001092230110E0C0E0D0E0D43649F40E94C9
:1008400077011D9904C00E94E801D0E001C0D0E00A
:10085000DF5F80910001C81303C00E945902C0E00D
:10086000CF5F111108C080911B0188B980911A01D6
:100870008BB911E011C0113041F48091190188B990
:10088000809118018BB912E007C08091160188B9D8
:10089000809115018BB910E01A990DC088E0809302
:1008A000150187EF8093160185E080931701109260
:1008B000240110922301809120018823E1F31092FA
:1008C0002001BBCFEE0FFF1F0024001C0BBE0790C2
:0A08D000F691E02D0994F894FFCF93
:1008DA00F40100000000000002000000006E0000A9
:0408EA00000000000A
:00000001FF
