:100000000C944D000C946C000C946C000C946C00DF
:100010000C946C000C946C000C946C000C946C00B0
:100020000C946C000C946C000C946C000C946C00A0
:100030000C946C000C9417010C946C000C946C00E4
:100040000C946C000C946C000C946C000C946C0080
:100050000C946C000C946C000C946C000C946C0070
:100060000C946C000C946C000C946C000C946C0060
:100070000C946C000C946C000C946C000C946C0050
:100080000C946C000C946C000C946C00F401FB015B
:100090005A02610268026F02760211241FBECFEF7E
:1000A000D0E4DEBFCDBF11E0A0E0B1E0ECE1F6E0CE
:1000B00000E00BBF02C007900D92A231B107D9F743
:1000C00011E0A2E1B1E001C01D92A132B107E1F758
:1000D0000E94D6020C940C030C940000CF93C82FFE
:1000E0008A3019F48DE00E946E009091C00095FF57
:1000F000FCCFC093C60080E090E0CF91089540E02F
:1001000050E00CC000002F5F3F4F02C020E030E005
:10011000273063E03607B4F34F5F5F4F4817590746
:10012000ACF308955E9888B95F9A00005F9882E00A
:1001300090E00E947F00089581E00E94920008955F
:10014000813120F481580E949200089581550E94C7
:100150009200089584E690E00E947F0088E30E9468
:10016000920086E00E9492008FE00E94920081E05F
:100170000E9492008AE090E00E947F0008955E9ABB
:1001800088B95F9A00005F9881E090E00E947F004C
:100190000895EF92FF920F931F93CF93DF93182F41
:1001A000EB010E949C000EC001E0010F812F0E9414
:1001B000A0007E018FEFE81AF80A88810E94BF0034
:1001C000102FE70188818111EFCFDF91CF911F912F
:1001D0000F91FF90EF9008958BE0809381008DE761
:1001E00090E0909389008093880082E080936F0074
:1001F000109285001092840080910001909101017D
:10020000A0910201B091030180931701909318010E
:10021000A0931901B0931A018FB780688FBF08951A
:1002200010928100089581E080931B0108951F9230
:100230000F920FB60F9211240BB60F922F933F938C
:100240004F935F936F937F938F939F93AF93BF93DE
:10025000EF93FF938091170190911801A0911901DC
:10026000B0911A010197A109B109809317019093E8
:100270001801A0931901B0931A01892B8A2B8B2B9B
:1002800091F40E9413018091000190910101A091CD
:100290000201B09103018093170190931801A0937C
:1002A0001901B0931A01FF91EF91BF91AF919F9106
:1002B0008F917F916F915F914F913F912F910F900F
:1002C0000BBE0F900FBE0F901F901895609300010A
:1002D00070930101809302019093030160931701D1
:1002E000709318018093190190931A0108958091D9
:1002F0001D0190911E018130910571F030F0823026
:10030000910519F1039741F12EC081E090E090939F
:100310001E0180931D012BC0189907C082E090E058
:1003200090931E0180931D0122C0199907C083E09C
:1003300090E090931E0180931D0119C081E090E030
:1003400090931E0180931D0112C081E090E0909374
:100350001E0180931D010BC081E090E090931E016F
:1003600080931D0104C010921E0110921D01809106
:100370001D0190911E018230910561F0833091053D
:10038000C1F0892B21F587EE8093160180E88093D8
:1003900015010895809116018F33C9F080911601DF
:1003A000880F80931601809116018F5F809316014C
:1003B0000895809116018C3F51F080911601869529
:1003C000809316018091160180588093160108953C
:1003D000E0911F01F0912001E730F10508F086C09F
:1003E000EA5BFF4F0C94030381E090E090932001BF
:1003F00080931F0181C080911401813041F490915C
:100400001201913021F483E0809314011DC08330E8
:1004100041F4909113019F3721F484E080931401FB
:1004200013C0843041F490911201903821F482E09D
:100430008093140109C0823039F4809113018E3FFA
:1004400019F481E08093140180911401813039F412
:1004500082E090E09093200180931F014DC0823094
:1004600039F483E090E09093200180931F0144C011
:10047000833039F484E090E09093200180931F0151
:100480003BC0843039F485E090E090932001809364
:100490001F0132C0853039F486E090E0909320014E
:1004A00080931F0129C081E090E090932001809308
:1004B0001F0122C081E090E09093200180931F01F2
:1004C0001BC081E090E09093200180931F0114C035
:1004D00081E090E09093200180931F010DC081E0A6
:1004E00090E09093200180931F0106C081E090E08E
:1004F0009093200180931F0180911F019091200112
:100500008430910571F130F48230910551F00397F8
:10051000C1F0089585309105A1F1069709F441C015
:10052000089580911301880F809313018091130126
:100530008F5F809313018091120186958093120141
:100540000895809113018695809313018091130182
:100550008058809313018091120186958093120137
:10056000089580911301880F8093130180911301E6
:100570008F5F8093130180911201880F8093120185
:100580000895809113018695809313018091130142
:1005900080588093130180911201880F809312017B
:1005A00008958091130180911201089514B88FEF7E
:1005B00085B981B912B887B918B88AB91BB864E689
:1005C00070E080E090E00E9466010E94EC0080E113
:1005D000809312018BEF8093130181E080931401CB
:1005E0001092200110921F010E94E80180911301D6
:1005F00088B9809112018BB980911B018823E1F3A6
:1006000010921B01F1CFEE0FFF1F0024001C0BBE48
:0C0610000790F691E02D0994F894FFCFBC
:10061C000100000000000002000000006E0000005D
:02062C000000CC
:00000001FF
