:100000000C944D000C946C000C946C000C946C00DF
:100010000C946C000C946C000C946C000C946C00B0
:100020000C946C000C946C000C946C000C946C00A0
:100030000C946C000C9450010C946C000C946C00AB
:100040000C946C000C946C000C946C000C946C0080
:100050000C946C000C946C000C946C000C946C0070
:100060000C946C000C946C000C946C000C946C0060
:100070000C946C000C946C000C946C000C946C0050
:100080000C946C000C946C000C946C009E02A50205
:10009000D804DF04E604ED04F40411241FBECFEFFE
:1000A000D0E4DEBFCDBF11E0A0E0B1E0E6E6FDE0C8
:1000B00000E00BBF02C007900D92A431B107D9F741
:1000C00011E0A4E1B1E001C01D92A033B107E1F756
:1000D0000E94ED050C94B1060C940000CF93C82F3C
:1000E0008A3019F48DE00E946E009091C00095FF57
:1000F000FCCFC093C60080E090E0CF91089540E02F
:1001000050E00CC000002F5F3F4F02C020E030E005
:10011000273063E03607B4F34F5F5F4F4817590746
:10012000ACF308955E9888B95F9A00005F9882E00A
:1001300090E00E947F00089581E00E94920008955F
:10014000813120F481580E949200089581550E94C7
:100150009200089584E690E00E947F0088E30E9468
:10016000920086E00E9492008FE00E94920081E05F
:100170000E9492008AE090E00E947F0008955E9ABB
:1001800088B95F9A00005F9881E090E00E947F004C
:100190000895EF92FF920F931F93CF93DF93182F41
:1001A000EB010E949C000EC001E0010F812F0E9414
:1001B000A0007E018FEFE81AF80A88810E94BF0034
:1001C000102FE70188818111EFCFDF91CF911F912F
:1001D0000F91FF90EF90089581B1876081B90895E4
:1001E000119A11980895129A81E0982F9A95F1F733
:1001F00012988A95F1F70895CF93C82F109227018E
:100200000DC0CC2314F4109A01C010980E94F00085
:10021000CC0F909127019F5F909327018091270138
:10022000883078F30E94F300CF910895109227014F
:1002300007C0E0E0F0E03197F1F78F5F809327018E
:10024000809127018E31A8F308958BE0809381007F
:100250008DE790E0909389008093880082E08093FE
:100260006F0010928500109284008091020190919D
:100270000301A0910401B0910501809322019093A4
:100280002301A0932401B09325018FB780688FBF0D
:10029000089510928100089581E0809326010895C9
:1002A0001F920F920FB60F9211240BB60F922F933D
:1002B0003F934F935F936F937F938F939F93AF93EE
:1002C000BF93EF93FF938091220190912301A0911E
:1002D0002401B09125010197A109B1098093220160
:1002E00090932301A0932401B0932501892B8A2B9D
:1002F0008B2B91F40E944C0180910201909103019B
:10030000A0910401B09105018093220190932301F3
:10031000A0932401B0932501FF91EF91BF91AF917C
:100320009F918F917F916F915F914F913F912F910D
:100330000F900BBE0F900FBE0F901F9018956093FB
:10034000020170930301809304019093050160936F
:100350002201709323018093240190932501089535
:1003600080912801909129018130910571F030F040
:100370008230910519F1039741F12EC081E090E0A0
:1003800090932901809328012BC0189907C082E01F
:1003900090E0909329018093280122C0199907C009
:1003A00083E090E0909329018093280119C081E0B7
:1003B00090E0909329018093280112C081E090E0A1
:1003C00090932901809328010BC081E090E09093E5
:1003D00029018093280104C010922901109228015C
:1003E00080912801909129018230910561F083303C
:1003F0009105C1F0892B21F587EC80931D0180E8E0
:1004000080931C01089580911D018F31C9F0809166
:100410001D01880F80931D0180911D018F5F8093C6
:100420001D01089580911D01883F51F080911D01AB
:10043000869580931D0180911D01805880931D0138
:10044000089580912E0190912F018130910571F0D6
:1004500030F08230910519F1039741F12EC081E00F
:1004600090E090932F0180932E012BC01C9907C020
:1004700082E090E090932F0180932E0122C01B997F
:1004800007C083E090E090932F0180932E0119C064
:1004900081E090E090932F0180932E0112C081E0C3
:1004A00090E090932F0180932E010BC081E090E0AB
:1004B00090932F0180932E0104C010922F0110926F
:1004C0002E0180912E0190912F0182309105D9F05B
:1004D0008330910549F0892B21F587EC80931B012E
:1004E00081E080931A01089580911B018F31C9F03A
:1004F00080911B01880F80931B0180911B018F5FEE
:1005000080931B01089580911B01883F51F08091D9
:100510001B01869580931B0180911B01805880935D
:100520001B010895E0912A01F0912B01E730F105BC
:1005300008F05AC2EA5BFF4F0C94A80681E090E0F5
:1005400090932B0180932A0155C280911901833029
:1005500041F4909118019F3721F484E080931901B0
:100560001DC0813041F4909118019F3721F482E041
:100570008093190113C0823041F4909118019E3F7D
:1005800021F481E08093190109C0843039F480910D
:1005900018018E3F19F483E08093190180911901AD
:1005A000833039F480911801880F8F5F8093160192
:1005B0000DC0843039F4809118018695805880935D
:1005C000160104C0809118018093160190911D01BD
:1005D00080911601892B8F3F09F440C020911C01A6
:1005E00030E08091170190E0880F991F2817390794
:1005F000A9F580911801880F8F5F80931601282F2D
:10060000220F2F5F2093150190910101933318F071
:1006100099519093010140911D0150E090E08417A1
:10062000950724F481E08093190131C040911D01A8
:1006300050E0822F90E08417950764F480911901AF
:10064000833021F481E08093190121C082E08093FE
:1006500019011DC082E08093190119C090911C01FD
:1006600080911701981313C080910001811104C07B
:1006700080E1809300010BC0803121F480E38093FE
:10068000000105C0803319F480E7809300011D99B3
:1006900076C080911901813039F480911801880F5A
:1006A0008F5F809316010DC0823039F4809118015C
:1006B000869580588093160104C08091180180931C
:1006C000160190911B0180911601892B8F3FE1F15A
:1006D00080911701869590911A01891335C08091F8
:1006E0001801880F8F5F80931601282F220F2F5F2C
:1006F0002093150190910101933318F09951909333
:10070000010140911B0150E090E08417950724F40B
:1007100083E080931901A7C040911B0150E0822F14
:1007200090E08417950764F480911901813021F4D9
:1007300083E08093190197C084E08093190193C0EE
:1007400084E0809319018FC090911A018091170164
:10075000981389C080912001811104C081E08093A9
:10076000200181C0813021F483E0809320017BC08F
:10077000833009F078C087E08093200174C08091B5
:100780001901813039F480911801880F8F5F8093AF
:1007900016010DC0823039F4809118018695805879
:1007A0008093160104C080911801809316019091E6
:1007B0001F0180911601892B8F3FE1F18091170174
:1007C000869590911E01891335C080911801880F7C
:1007D0008F5F80931601282F220F2F5F2093150122
:1007E00090910101933318F0995190930101409138
:1007F0001F0150E090E08417950724F483E0809374
:10080000190131C040911F0150E0822F90E0841700
:10081000950764F480911901813021F483E080937D
:10082000190121C084E0809319011DC084E08093E8
:10083000190119C090911E0180911701981313C0DE
:1008400080912001811104C081E0809320010BC0C0
:10085000813021F483E08093200105C0833019F4B6
:1008600087E0809320019091200180910001892BE5
:1008700080932101809118018E3F81F480911701AE
:10088000803461F480911D01883F21F080911D0129
:10089000813F21F481E0809319014BC080911801C0
:1008A0008F3781F480911701803461F480911D01AC
:1008B0008F3821F080911D018F3121F482E08093E7
:1008C000190137C0809118018E3FC1F48091170142
:1008D0008230A1F480911B01883F61F080911B015F
:1008E000813F41F080911F01883F21F080911F01DD
:1008F000813F21F483E0809319011BC0809118018E
:100900008F37B9F480911701823099F480911B01DF
:100910008F3861F080911B018F3141F080911F0170
:10092000883F21F080911F01813F19F484E080937A
:10093000190180911901813039F482E090E090939F
:100940002B0180932A0156C0823039F483E090E075
:1009500090932B0180932A014DC0833039F484E0B9
:1009600090E090932B0180932A0144C0843039F4A5
:1009700085E090E090932B0180932A013BC0853065
:1009800039F486E090E090932B0180932A0132C0E5
:10099000863039F487E090E090932B0180932A0110
:1009A00029C081E090E090932B0180932A0122C01E
:1009B00081E090E090932B0180932A011BC081E09D
:1009C00090E090932B0180932A0114C081E090E085
:1009D00090932B0180932A010DC081E090E09093C9
:1009E0002B0180932A0106C081E090E090932B01B7
:1009F00080932A0180912A0190912B0184309105E6
:100A000081F130F48230910561F00397D1F00895BF
:100A10008630910509F445C0A0F1079709F447C055
:100A2000089580911801880F809318018091180112
:100A30008F5F80931801809117018695809317012D
:100A4000089580911801869580931801809118016E
:100A50008058809318018091170186958093170123
:100A6000089580911801880F8093180180911801D2
:100A70008F5F8093180180911701880F8093170171
:100A8000089580911801869580931801809118012E
:100A900080588093180180911701880F8093170167
:100AA000089580911701880F809317010895809110
:100AB0001701869580931701089580912C019091DC
:100AC0002D018130910581F040F08230910509F4CB
:100AD00041C0039709F445C04BC081E090E090937A
:100AE0002D0180932C0148C080911801880F8F5FE1
:100AF00080931601282F220F2F5F2093150140911C
:100B00001F0150E090E0841795073CF483E090E0EB
:100B100090932D0180932C012FC040911F0150E034
:100B2000822F90E0841795073CF180911801209165
:100B3000180191E08F3B09F090E081E02F3709F038
:100B400080E0892BC9F482E090E090932D0180939E
:100B50002C0112C081E090E090932D0180932C0134
:100B60000BC081E090E090932D0180932C0104C094
:100B700010922D0110922C0180912C0190912D0149
:100B800082309105D9F08330910549F0892B21F508
:100B900087EC80931F0181E080931E01089580916E
:100BA0001F018F31C9F080911F01880F80931F01B1
:100BB00080911F018F5F80931F01089580911F0115
:100BC000883F51F080911F01869580931F0180918D
:100BD0001F01805880931F01089514B88FEF85B9C5
:100BE00081B912B887B918B88AB91BB861E070E04A
:100BF00080E090E00E949F010E94250187EC809395
:100C00001D0180E880931C01109229011092280197
:100C10001D990BC087EC80931B0181E080931A0122
:100C200010922F0110922E010AC087EC80931F01B1
:100C300081E080931E0110922D0110922C010E94E0
:100C4000EC0000E0D0E0C0E010E0809121010E94C3
:100C5000FC00123349F40E94B0011D9904C00E94A7
:100C6000210210E001C010E01F5FC23319F40E949E
:100C70005D05C0E0CF5F80910101D81303C00E94E1
:100C80009202D0E0DF5F011108C080911D0188B998
:100C900080911C018BB901E01BC0013091F41D99BA
:100CA00008C080911B0188B980911A018BB902E0BC
:100CB0000FC080911F0188B980911E018BB902E09D
:100CC00007C08091180188B9809117018BB900E0A5
:100CD0001A992AC080910001883011F41092000105
:100CE00091E080912001873009F090E081E020912F
:100CF0000001203709F080E0892B31F010922101AA
:100D0000109200011092200184E08093170187EF78
:100D10008093180185E08093190110922B011092A5
:100D20002A0184EF809301011E990BC010922101CA
:100D30001092200110920001109217018FEF809302
:100D40001801809126018823E1F3109226017DCFBE
:100D5000EE0FFF1F0024001C0BBE0790F691E02D44
:060D60000994F894FFCF96
:100D660008F40100000000000002000000006E0010
:040D76000000000079
:00000001FF
