:100000000C944D000C946C000C946C000C946C00DF
:100010000C946C000C946C000C946C000C946C00B0
:100020000C946C000C946C000C946C000C946C00A0
:100030000C946C000C9417010C946C000C946C00E4
:100040000C946C000C946C000C946C000C946C0080
:100050000C946C000C946C000C946C000C946C0070
:100060000C946C000C946C000C946C000C946C0060
:100070000C946C000C946C000C946C000C946C0050
:100080000C946C000C946C000C946C0065026C0277
:1000900038043F0446044D04540411241FBECFEF1E
:1000A000D0E4DEBFCDBF11E0A0E0B1E0E8E0FCE0CD
:1000B00000E00BBF02C007900D92A431B107D9F741
:1000C00011E0A4E1B1E001C01D92AE32B107E1F749
:1000D0000E944E050C9402060C940000CF93C82F8A
:1000E0008A3019F48DE00E946E009091C00095FF57
:1000F000FCCFC093C60080E090E0CF91089540E02F
:1001000050E00CC000002F5F3F4F02C020E030E005
:10011000273063E03607B4F34F5F5F4F4817590746
:10012000ACF308955E9888B95F9A00005F9882E00A
:1001300090E00E947F00089581E00E94920008955F
:10014000813120F481580E949200089581550E94C7
:100150009200089584E690E00E947F0088E30E9468
:10016000920086E00E9492008FE00E94920081E05F
:100170000E9492008AE090E00E947F0008955E9ABB
:1001800088B95F9A00005F9881E090E00E947F004C
:100190000895EF92FF920F931F93CF93DF93182F41
:1001A000EB010E949C000EC001E0010F812F0E9414
:1001B000A0007E018FEFE81AF80A88810E94BF0034
:1001C000102FE70188818111EFCFDF91CF911F912F
:1001D0000F91FF90EF9008958BE0809381008DE761
:1001E00090E0909389008093880082E080936F0074
:1001F0001092850010928400809102019091030179
:10020000A0910401B09105018093210190932201F6
:10021000A0932301B09324018FB780688FBF089506
:1002200010928100089581E08093250108951F9226
:100230000F920FB60F9211240BB60F922F933F938C
:100240004F935F936F937F938F939F93AF93BF93DE
:10025000EF93FF938091210190912201A0912301BE
:10026000B09124010197A109B109809321019093D4
:100270002201A0932301B0932401892B8A2B8B2B7D
:1002800091F40E9413018091020190910301A091C9
:100290000401B09105018093210190932201A09364
:1002A0002301B0932401FF91EF91BF91AF919F91F2
:1002B0008F917F916F915F914F913F912F910F900F
:1002C0000BBE0F900FBE0F901F9018956093020108
:1002D00070930301809304019093050160932101C1
:1002E00070932201809323019093240108958091BB
:1002F0002601909127018130910571F030F0823014
:10030000910519F1039741F12EC081E090E090939F
:100310002701809326012BC0189907C082E090E046
:10032000909327018093260122C0199907C083E08A
:1003300090E0909327018093260119C081E090E01E
:10034000909327018093260112C081E090E0909362
:100350002701809326010BC081E090E09093270154
:100360008093260104C010922701109226018091EB
:100370002601909127018230910561F0833091052B
:10038000C1F0892B21F587EC80931C0180E88093D4
:100390001B01089580911C018F31C9F080911C01CF
:1003A000880F80931C0180911C018F5F80931C013A
:1003B000089580911C01883F51F080911C01869521
:1003C00080931C0180911C01805880931C0108952A
:1003D00080912C0190912D018130910571F030F0C8
:1003E0008230910519F1039741F12EC081E090E030
:1003F00090932D0180932C012BC01C9907C082E0A3
:1004000090E090932D0180932C0122C01B9907C08E
:1004100083E090E090932D0180932C0119C081E03E
:1004200090E090932D0180932C0112C081E090E028
:1004300090932D0180932C010BC081E090E090936C
:100440002D0180932C0104C010922D0110922C01DB
:1004500080912C0190912D0182309105D9F083304B
:10046000910549F0892B21F587EC80931A0181E0F1
:1004700080931901089580911A018F31C9F08091FC
:100480001A01880F80931A0180911A018F5F80935F
:100490001A01089580911A01883F51F080911A0144
:1004A000869580931A0180911A01805880931A01D1
:1004B0000895E0912801F0912901E730F10508F055
:1004C000F3C1EA5BFF4F0C94F90581E090E0909353
:1004D000290180932801EEC180911801833041F4F5
:1004E000909117019F3721F484E0809318011DC07B
:1004F000813041F4909117019F3721F482E080937D
:10050000180113C0823041F4909117019E3F21F4ED
:1005100081E08093180109C0843039F4809117017B
:100520008E3F19F483E080931801809117018E3F6C
:1005300041F480911601813021F483E08093180109
:1005400023C0809117018F3741F4809116018038C4
:1005500021F482E08093180117C0809117018F3732
:1005600041F480911601813021F484E080931801D8
:100570000BC0809117018E3F39F4809116018038AD
:1005800019F481E08093180190911C01809117016A
:10059000892B8F3F09F443C020911B0180911601E4
:1005A00090E0880F991F60911B015091160130E077
:1005B00041E02817390709F040E081E0651380E049
:1005C000842B69F180911701880F8F5F809315014B
:1005D000282F220F2F5F2093140190910101933354
:1005E00018F099519093010140911C0150E090E066
:1005F0008417950724F481E0809318012CC0409162
:100600001C0150E0822F90E08417950724F486E0C7
:100610008093180120C082E0809318011CC0909143
:100620001B0180911601981316C080910001811161
:1006300004C080E1809300010EC0803121F480E38A
:100640008093000108C0803321F480E7809300018B
:1006500002C0109200011D9963C090911A0180910F
:100660001701892B8F3F09F43EC0909116018091AC
:1006700019014091190130911601969521E09813C6
:1006800020E081E0431380E0822B69F18091170123
:10069000880F8F5F80931501282F220F2F5F2093E3
:1006A000140190910101933318F099519093010135
:1006B00040911A0150E090E08417950724F483E0FC
:1006C000809318018FC040911A0150E0822F90E072
:1006D0008417950724F485E08093180183C084E093
:1006E000809318017FC09091190180911601981391
:1006F00079C080911F01811104C081E080931F01A6
:1007000071C0813021F483E080931F016BC083307E
:1007100021F487E080931F0165C010921F0162C021
:1007200090911E0180911701892B8F3F09F43EC0E3
:100730009091160180911D0140911D01309116018B
:10074000969521E0981320E081E0431380E0822B0E
:1007500069F180911701880F8F5F80931501282F11
:10076000220F2F5F2093140190910101933318F011
:1007700099519093010140911E0150E090E084173F
:10078000950724F483E0809318012CC040911E014A
:1007900050E0822F90E08417950724F485E0809341
:1007A000180120C084E0809318011CC090911D01A5
:1007B00080911601981316C080911F01811104C009
:1007C00081E080931F010EC0813021F483E080938B
:1007D0001F0108C0833021F487E080931F0102C00D
:1007E00010921F0190911F0180910001890F809349
:1007F000200180911801813039F482E090E09093DB
:1008000029018093280156C0823039F483E090E0BA
:1008100090932901809328014DC0833039F484E0FE
:1008200090E0909329018093280144C0843039F4EA
:1008300085E090E090932901809328013BC08530AA
:1008400039F486E090E0909329018093280132C02A
:10085000863039F487E090E0909329018093280155
:1008600029C081E090E0909329018093280122C063
:1008700081E090E090932901809328011BC081E0E2
:1008800090E0909329018093280114C081E090E0CA
:1008900090932901809328010DC081E090E090930E
:1008A00029018093280106C081E090E090932901FE
:1008B000809328018091280190912901843091052D
:1008C00081F130F48230910561F00397D1F0089501
:1008D0008630910509F445C0A0F1079709F447C097
:1008E000089580911701880F809317018091170157
:1008F0008F5F809317018091160186958093160172
:1009000008958091170186958093170180911701B2
:100910008058809317018091160186958093160167
:10092000089580911701880F809317018091170116
:100930008F5F8093170180911601880F80931601B5
:100940000895809117018695809317018091170172
:1009500080588093170180911601880F80931601AB
:10096000089580911601880F809316010895809153
:100970001601869580931601089580912A01909121
:100980002B018130910581F040F08230910509F40E
:1009900042C0039709F446C04CC081E090E09093B8
:1009A0002B0180932A0149C080911701880F8F5F26
:1009B00080931501282F220F2F5F2093140140915F
:1009C0001E0150E090E0841795075CF480911E01B1
:1009D0008F3139F083E090E090932B0180932A01CE
:1009E0002CC040911E0150E0822F90E084179507A3
:1009F0005CF480911E01883F39F481E090E090938F
:100A00002B0180932A0119C082E090E090932B0182
:100A100080932A0112C081E090E090932B01809393
:100A20002A010BC081E090E090932B0180932A0172
:100A300004C010922B0110922A0180912A019091FA
:100A40002B0182309105D9F08330910549F0892B33
:100A500021F587EC80931E0181E080931D010895AC
:100A600080911E018F31C9F080911E01880F809303
:100A70001E0180911E018F5F80931E010895809159
:100A80001E01883F51F080911E01869580931E01C2
:100A900080911E01805880931E01089514B88FEF35
:100AA00085B981B912B887B918B88AB91BB861E09D
:100AB00070E080E090E00E9466010E94EC0087EC0C
:100AC00080931C0180E880931B01109227011092F3
:100AD00026011D990BC087EC80931A0181E0809359
:100AE000190110922D0110922C010AC087EC8093FD
:100AF0001E0181E080931D0110922B0110922A01AA
:100B000000E0D0E0C0E010E08091200182B9123313
:100B100049F40E9477011D9904C00E94E80110E089
:100B200001C010E01F5FC43619F40E94BD04C0E08C
:100B3000CF5F80910101D81303C00E945902D0E019
:100B4000DF5F011108C080911C0188B980911B01F1
:100B50008BB901E01BC0013091F41D9908C0809150
:100B60001A0188B9809119018BB902E00FC08091F8
:100B70001E0188B980911D018BB902E007C08091E8
:100B8000170188B9809116018BB900E01A992AC023
:100B900080910001883011F41092000191E0809161
:100BA0001F01873009F090E081E02091000120379B
:100BB00009F080E0892B31F010921F0110920001A2
:100BC0001092200184E08093160187EF8093170133
:100BD00085E080931801109229011092280184EF7A
:100BE00080930101809125018823E1F31092250172
:100BF0008BCFEE0FFF1F0024001C0BBE0790F69159
:080C0000E02D0994F894FFCFE8
:100C080008F40100000000000002000000006E006F
:040C180000000000D8
:00000001FF
