:100000000C944D000C946C000C946C000C946C00DF
:100010000C946C000C946C000C946C000C946C00B0
:100020000C946C000C946C000C946C000C946C00A0
:100030000C946C000C9417010C946C000C946C00E4
:100040000C946C000C946C000C946C000C946C0080
:100050000C946C000C946C000C946C000C946C0070
:100060000C946C000C946C000C946C000C946C0060
:100070000C946C000C946C000C946C000C946C0050
:100080000C946C000C946C000C946C0065026C0277
:100090002C0433043A044104480411241FBECFEF5A
:1000A000D0E4DEBFCDBF11E0A0E0B1E0E4EBFBE0C7
:1000B00000E00BBF02C007900D92A431B107D9F741
:1000C00011E0A4E1B1E001C01D92AF32B107E1F748
:1000D0000E9422050C94D8050C940000CF93C82FE1
:1000E0008A3019F48DE00E946E009091C00095FF57
:1000F000FCCFC093C60080E090E0CF91089540E02F
:1001000050E00CC000002F5F3F4F02C020E030E005
:10011000273063E03607B4F34F5F5F4F4817590746
:10012000ACF308955E9888B95F9A00005F9882E00A
:1001300090E00E947F00089581E00E94920008955F
:10014000813120F481580E949200089581550E94C7
:100150009200089584E690E00E947F0088E30E9468
:10016000920086E00E9492008FE00E94920081E05F
:100170000E9492008AE090E00E947F0008955E9ABB
:1001800088B95F9A00005F9881E090E00E947F004C
:100190000895EF92FF920F931F93CF93DF93182F41
:1001A000EB010E949C000EC001E0010F812F0E9414
:1001B000A0007E018FEFE81AF80A88810E94BF0034
:1001C000102FE70188818111EFCFDF91CF911F912F
:1001D0000F91FF90EF9008958BE0809381008DE761
:1001E00090E0909389008093880082E080936F0074
:1001F000109285001092840080910101909102017B
:10020000A0910301B09104018093220190932301F6
:10021000A0932401B09325018FB780688FBF089504
:1002200010928100089581E08093260108951F9225
:100230000F920FB60F9211240BB60F922F933F938C
:100240004F935F936F937F938F939F93AF93BF93DE
:10025000EF93FF938091220190912301A0912401BB
:10026000B09125010197A109B109809322019093D2
:100270002301A0932401B0932501892B8A2B8B2B7A
:1002800091F40E9413018091010190910201A091CB
:100290000301B09104018093220190932301A09364
:1002A0002401B0932501FF91EF91BF91AF919F91F0
:1002B0008F917F916F915F914F913F912F910F900F
:1002C0000BBE0F900FBE0F901F9018956093010109
:1002D00070930201809303019093040160932201C3
:1002E00070932301809324019093250108958091B8
:1002F0002701909128018130910571F030F0823012
:10030000910519F1039741F12EC081E090E090939F
:100310002801809327012BC0189907C082E090E044
:10032000909328018093270122C0199907C083E088
:1003300090E0909328018093270119C081E090E01C
:10034000909328018093270112C081E090E0909360
:100350002801809327010BC081E090E09093280151
:100360008093270104C010922801109227018091E8
:100370002701909128018230910561F08330910529
:10038000C1F0892B21F587EC80931C0180E88093D4
:100390001B01089580911C018F31C9F080911C01CF
:1003A000880F80931C0180911C018F5F80931C013A
:1003B000089580911C01883F51F080911C01869521
:1003C00080931C0180911C01805880931C0108952A
:1003D00080912D0190912E018130910571F030F0C6
:1003E0008230910519F1039741F12EC081E090E030
:1003F00090932E0180932D012BC01C9907C082E0A1
:1004000090E090932E0180932D0122C01B9907C08C
:1004100083E090E090932E0180932D0119C081E03C
:1004200090E090932E0180932D0112C081E090E026
:1004300090932E0180932D010BC081E090E090936A
:100440002E0180932D0104C010922E0110922D01D7
:1004500080912D0190912E0182309105D9F0833049
:10046000910549F0892B21F587EC80931A0181E0F1
:1004700080931901089580911A018F31C9F08091FC
:100480001A01880F80931A0180911A018F5F80935F
:100490001A01089580911A01883F51F080911A0144
:1004A000869580931A0180911A01805880931A01D1
:1004B0000895E0912901F0912A01E730F10508F053
:1004C000E7C1EA5BFF4F0C94CF0581E090E0909389
:1004D0002A0180932901E2C180911801833041F4FF
:1004E000909117019F3721F484E0809318011DC07B
:1004F000813041F4909117019F3721F482E080937D
:10050000180113C0823041F4909117019E3F21F4ED
:1005100081E08093180109C0843039F4809117017B
:100520008E3F19F483E080931801809117018E3F6C
:1005300041F480911601813021F483E08093180109
:1005400023C0809117018F3741F4809116018038C4
:1005500021F482E08093180117C0809117018F3732
:1005600041F480911601813021F484E080931801D8
:100570000BC0809117018E3F39F4809116018038AD
:1005800019F481E08093180190911C01809117016A
:10059000892B8F3FC1F120911B0130E08091160122
:1005A00090E0880F991F2817390769F58091170186
:1005B000880F8F5F80931501282F220F2F5F2093C4
:1005C000140190910001933318F099519093000118
:1005D00040911C0150E090E08417950724F481E0DD
:1005E0008093180133C040911C0150E0822F90E0AD
:1005F0008417950724F486E08093180127C082E0D1
:100600008093180123C090911C0180911701892BC0
:100610008F3FE1F490911B0180911601981316C051
:1006200080911F01811104C080E180931F010EC0E1
:10063000803121F480E380931F0108C0803321F4CE
:1006400080E780931F0102C010921F011D9960C0B6
:1006500090911A0180911701892B8F3FA1F1809110
:10066000160186959091190189132DC0809117016B
:10067000880F8F5F80931501282F220F2F5F209303
:10068000140190910001933318F099519093000157
:1006900040911A0150E090E08417950724F483E01C
:1006A0008093180193C040911A0150E0822F90E08E
:1006B0008417950724F485E08093180187C084E0AF
:1006C0008093180183C090911A0180911701892BA2
:1006D0008F3F09F07BC0909119018091160198130A
:1006E00075C080912001811104C081E080932001B8
:1006F0006DC0813021F483E08093200167C0833096
:1007000021F487E08093200161C0109220015EC037
:1007100090911E0180911701892B8F3FA1F180914B
:100720001601869590911D0189132DC080911701A6
:10073000880F8F5F80931501282F220F2F5F209342
:10074000140190910001933318F099519093000196
:1007500040911E0150E090E08417950724F483E057
:100760008093180133C040911E0150E0822F90E029
:100770008417950724F485E08093180127C084E04E
:100780008093180123C090911E0180911701892B3D
:100790008F3FE1F490911D0180911601981316C0CE
:1007A00080912001811104C081E0809320010EC05E
:1007B000813021F483E08093200108C0833021F44C
:1007C00087E08093200102C01092200190912001C7
:1007D00080911F01890F8093210180911801813040
:1007E00039F482E090E090932A018093290156C069
:1007F000823039F483E090E090932A0180932901BC
:100800004DC0833039F484E090E090932A018093C6
:10081000290144C0843039F485E090E090932A01A6
:10082000809329013BC0853039F486E090E09093B5
:100830002A018093290132C0863039F487E090E0A4
:1008400090932A018093290129C081E090E0909340
:100850002A018093290122C081E090E090932A012F
:10086000809329011BC081E090E090932A0180933E
:10087000290114C081E090E090932A01809329011E
:100880000DC081E090E090932A018093290106C079
:1008900081E090E090932A018093290180912901C1
:1008A00090912A018430910581F130F482309105D4
:1008B00061F00397D1F008958630910509F445C0A1
:1008C000A0F1079709F447C0089580911701880F98
:1008D00080931701809117018F5F8093170180919A
:1008E00016018695809316010895809117018695CB
:1008F0008093170180911701805880931701809190
:100900001601869580931601089580911701880F2E
:1009100080931701809117018F5F80931701809159
:100920001601880F8093160108958091170186950E
:10093000809317018091170180588093170180914F
:100940001601880F80931601089580911601880F73
:100950008093160108958091160186958093160163
:10096000089580912B0190912C018130910571F0B7
:1009700030F08230910519F1039741F12EC081E0EA
:1009800090E090932C0180932B012BC01C9907C001
:1009900082E090E090932C0180932B0122C01B9960
:1009A00007C083E090E090932C0180932B0119C045
:1009B00081E090E090932C0180932B0112C081E0A4
:1009C00090E090932C0180932B010BC081E090E08C
:1009D00090932C0180932B0104C010922C01109253
:1009E0002B0180912B0190912C0182309105D9F03F
:1009F0008330910549F0892B21F587EC80931E0106
:100A000081E080931D01089580911E018F31C9F00E
:100A100080911E01880F80931E0180911E018F5FBF
:100A200080931E01089580911E01883F51F08091AE
:100A30001E01869580931E0180911E01805880932F
:100A40001E01089514B88FEF85B981B912B887B91E
:100A500018B88AB91BB861E070E080E090E00E94AD
:100A600066010E94EC0087EC80931C0180E8809373
:100A70001B0110922801109227011D990BC087ECD1
:100A800080931A0181E08093190110922E01109237
:100A90002D010AC087EC80931E0181E080931D0127
:100AA00010922C0110922B0180E88093160187EFA1
:100AB0008093170185E08093180110922A0110920B
:100AC000290110E0D0E0C0E08091210182B9C43654
:100AD00059F40E9477011D9904C00E94E801C0E00A
:100AE00003C00E94B104C0E0CF5F80910001D81321
:100AF00003C00E945902D0E0DF5F111108C080914D
:100B00001C0188B980911B018BB911E01BC0113009
:100B100091F41D9908C080911A0188B9809119013A
:100B20008BB912E00FC080911E0188B980911D0120
:100B30008BB912E007C08091170188B98091160126
:100B40008BB910E01A9924C091E080912001873080
:100B500009F090E081E020911F01203709F080E04A
:100B6000892B31F01092200110921F011092210167
:100B700082E08093160187EF8093170185E08093D0
:100B8000180110922A011092290184EF809300012C
:100B9000809126018823E1F31092260195CFEE0F74
:100BA000FF1F0024001C0BBE0790F691E02D099456
:040BB000F894FFCFE7
:100BB400F40100000000000002000000006E0000CC
:040BC400000000002D
:00000001FF
