:100000000C944D000C946C000C946C000C946C00DF
:100010000C946C000C946C000C946C000C946C00B0
:100020000C946C000C946C000C946C000C946C00A0
:100030000C946C000C9417010C946C000C946C00E4
:100040000C946C000C946C000C946C000C946C0080
:100050000C946C000C946C000C946C000C946C0070
:100060000C946C000C946C000C946C000C946C0060
:100070000C946C000C946C000C946C000C946C0050
:100080000C946C000C946C000C946C0065026C0277
:100090009E03A503AC03B303BA0311241FBECFEF25
:1000A000D0E4DEBFCDBF11E0A0E0B1E0E2E5F9E0D1
:1000B00000E00BBF02C007900D92A431B107D9F741
:1000C00011E0A4E1B1E001C01D92A832B107E1F74F
:1000D0000E9423040C94A7040C940000CF93C82F13
:1000E0008A3019F48DE00E946E009091C00095FF57
:1000F000FCCFC093C60080E090E0CF91089540E02F
:1001000050E00CC000002F5F3F4F02C020E030E005
:10011000273063E03607B4F34F5F5F4F4817590746
:10012000ACF308955E9888B95F9A00005F9882E00A
:1001300090E00E947F00089581E00E94920008955F
:10014000813120F481580E949200089581550E94C7
:100150009200089584E690E00E947F0088E30E9468
:10016000920086E00E9492008FE00E94920081E05F
:100170000E9492008AE090E00E947F0008955E9ABB
:1001800088B95F9A00005F9881E090E00E947F004C
:100190000895EF92FF920F931F93CF93DF93182F41
:1001A000EB010E949C000EC001E0010F812F0E9414
:1001B000A0007E018FEFE81AF80A88810E94BF0034
:1001C000102FE70188818111EFCFDF91CF911F912F
:1001D0000F91FF90EF9008958BE0809381008DE761
:1001E00090E0909389008093880082E080936F0074
:1001F000109285001092840080910101909102017B
:10020000A0910301B091040180931D0190931E0100
:10021000A0931F01B09320018FB780688FBF08950E
:1002200010928100089581E08093210108951F922A
:100230000F920FB60F9211240BB60F922F933F938C
:100240004F935F936F937F938F939F93AF93BF93DE
:10025000EF93FF9380911D0190911E01A0911F01CA
:10026000B09120010197A109B10980931D019093DC
:100270001E01A0931F01B0932001892B8A2B8B2B89
:1002800091F40E9413018091010190910201A091CB
:100290000301B091040180931D0190931E01A0936E
:1002A0001F01B0932001FF91EF91BF91AF919F91FA
:1002B0008F917F916F915F914F913F912F910F900F
:1002C0000BBE0F900FBE0F901F9018956093010109
:1002D00070930201809303019093040160931D01C8
:1002E00070931E0180931F019093200108958091C7
:1002F0002201909123018130910571F030F082301C
:10030000910519F1039741F12EC081E090E090939F
:100310002301809322012BC0189907C082E090E04E
:10032000909323018093220122C0199907C083E092
:1003300090E0909323018093220119C081E090E026
:10034000909323018093220112C081E090E090936A
:100350002301809322010BC081E090E09093230160
:100360008093220104C010922301109222018091F7
:100370002201909123018230910561F08330910533
:10038000C1F0892B21F587EC80931C0180E88093D4
:100390001B01089580911C018F31C9F080911C01CF
:1003A000880F80931C0180911C018F5F80931C013A
:1003B000089580911C01883F51F080911C01869521
:1003C00080931C0180911C01805880931C0108952A
:1003D00080912601909127018130910571F030F0D4
:1003E0008230910519F1039741F12EC081E090E030
:1003F00090932701809326012BC01C9907C082E0AF
:1004000090E0909327018093260122C01B9907C09A
:1004100083E090E0909327018093260119C081E04A
:1004200090E0909327018093260112C081E090E034
:1004300090932701809326010BC081E090E0909378
:1004400027018093260104C01092270110922601F3
:1004500080912601909127018230910561F08330CF
:100460009105C1F0892B21F587EC80931A0181E079
:1004700080931901089580911A018F31C9F08091FC
:100480001A01880F80931A0180911A018F5F80935F
:100490001A01089580911A01883F51F080911A0144
:1004A000869580931A0180911A01805880931A01D1
:1004B0000895E0912401F0912501E730F10508F05D
:1004C00059C1EA5BFF4F0C949E0481E090E0909349
:1004D00025018093240154C11D9B1FC080911801E8
:1004E000813041F490911601913021F483E08093A2
:1004F000180113C0823041F490911601913021F41B
:1005000084E08093180109C0863039F48091160187
:10051000813019F485E080931801809118018330AF
:1005200041F4909117019F3721F484E080931801E2
:100530001DC0813041F4909117019F3721F482E072
:100540008093180113C0823041F4909117019E3FAF
:1005500021F481E08093180109C0843039F480913E
:1005600017018E3F19F483E08093180180911701E1
:100570008E3F41F480911601813021F483E0809315
:10058000180123C0809117018F3741F48091160123
:10059000803821F482E08093180117C08091170100
:1005A0008F3741F480911601813021F484E08093EB
:1005B00018010BC0809117018E3F39F4809116010C
:1005C000803819F481E08093180190911C0180918A
:1005D0001701892B8F3FB9F120911B0130E08091E9
:1005E000160190E0880F991F2817390761F580914F
:1005F0001701880F8F5F80931501282F220F2F5F1F
:100600002093140190910001933318F09951909325
:10061000000140911C0150E090E08417950724F4FC
:1006200081E0809318010FC040911C0150E0822F9F
:1006300090E08417950724F486E08093180103C0A6
:1006400082E0809318011D993AC090911A0180911F
:100650001701892B8F3F99F1809116018695909112
:10066000190189132CC080911701880F8F5F809327
:100670001501282F220F2F5F209314019091000164
:10068000933318F099519093000140911A0150E072
:1006900090E08417950724F483E0809318010FC03D
:1006A00040911A0150E0822F90E08417950724F4BE
:1006B00085E08093180103C084E080931801809145
:1006C0001801813039F482E090E090932501809305
:1006D000240156C0823039F483E090E090932501E4
:1006E000809324014DC0833039F484E090E09093EE
:1006F00025018093240144C0843039F485E090E0E2
:1007000090932501809324013BC0853039F486E025
:1007100090E0909325018093240132C0863039F413
:1007200087E090E0909325018093240129C081E027
:1007300090E0909325018093240122C081E090E015
:1007400090932501809324011BC081E090E0909359
:1007500025018093240114C081E090E0909325014D
:10076000809324010DC081E090E090932501809357
:10077000240106C081E090E090932501809324013C
:1007800080912401909125018430910581F130F40C
:100790008230910561F00397D1F00895863091057C
:1007A00009F445C0A0F1079709F447C00895809166
:1007B0001701880F80931701809117018F5F809335
:1007C00017018091160186958093160108958091F6
:1007D00017018695809317018091170180588093A7
:1007E00017018091160186958093160108958091D6
:1007F0001701880F80931701809117018F5F8093F5
:10080000170180911601880F809316010895809139
:100810001701869580931701809117018058809366
:10082000170180911601880F809316010895809119
:100830001601880F80931601089580911601869500
:1008400080931601089514B88FEF85B981B912B855
:1008500087B918B88AB91BB861E070E080E090E011
:100860000E9466010E94EC0087EC80931C0180E8E6
:1008700080931B0110922301109222011D9906C042
:1008800087EC80931A0181E08093190180E88093BE
:10089000160187EF8093170185E08093180110926D
:1008A00025011092240110E0C0E0D0E0D43649F4D4
:1008B0000E9477011D9904C00E94E801D0E001C0A8
:1008C000D0E0DF5F80910001C81303C00E9459028D
:1008D000C0E0CF5F111108C080911C0188B98091E0
:1008E0001B018BB911E011C0113041F480911A0144
:1008F00088B9809119018BB912E007C08091170166
:1009000088B9809116018BB910E01A9910C082E065
:100910008093160187EF8093170185E0809318017B
:10092000109225011092240184EF809300018091A0
:1009300021018823E1F310922101B8CFEE0FFF1FB0
:100940000024001C0BBE0790F691E02D0994F8944A
:02095000FFCFD7
:10095200F40100000000000002000000006E000030
:040962000000000091
:00000001FF
